{
  "contractName": "CRUD",
  "abi": [
    {
      "inputs": [
        {
          "internalType": "string",
          "name": "name",
          "type": "string"
        }
      ],
      "name": "Create",
      "outputs": [],
      "stateMutability": "nonpayable",
      "type": "function"
    },
    {
      "inputs": [
        {
          "internalType": "uint256",
          "name": "id",
          "type": "uint256"
        }
      ],
      "name": "Read",
      "outputs": [
        {
          "internalType": "uint256",
          "name": "PlayerId",
          "type": "uint256"
        },
        {
          "internalType": "string",
          "name": "PlayerName",
          "type": "string"
        }
      ],
      "stateMutability": "view",
      "type": "function",
      "constant": true
    },
    {
      "inputs": [
        {
          "internalType": "uint256",
          "name": "id",
          "type": "uint256"
        },
        {
          "internalType": "string",
          "name": "newName",
          "type": "string"
        }
      ],
      "name": "Update",
      "outputs": [],
      "stateMutability": "nonpayable",
      "type": "function"
    },
    {
      "inputs": [
        {
          "internalType": "uint256",
          "name": "id",
          "type": "uint256"
        }
      ],
      "name": "Delete",
      "outputs": [],
      "stateMutability": "nonpayable",
      "type": "function"
    },
    {
      "inputs": [],
      "name": "totalPlayer",
      "outputs": [
        {
          "internalType": "uint256",
          "name": "",
          "type": "uint256"
        }
      ],
      "stateMutability": "view",
      "type": "function",
      "constant": true
    },
    {
      "inputs": [],
      "name": "showPlayer",
      "outputs": [
        {
          "internalType": "string",
          "name": "",
          "type": "string"
        }
      ],
      "stateMutability": "view",
      "type": "function",
      "constant": true
    },
    {
      "inputs": [
        {
          "internalType": "uint256",
          "name": "id",
          "type": "uint256"
        }
      ],
      "name": "getNameFromId",
      "outputs": [
        {
          "internalType": "string",
          "name": "",
          "type": "string"
        }
      ],
      "stateMutability": "view",
      "type": "function",
      "constant": true
    },
    {
      "inputs": [
        {
          "internalType": "uint256",
          "name": "_id",
          "type": "uint256"
        }
      ],
      "name": "getObjectPlayer",
      "outputs": [
        {
          "components": [
            {
              "internalType": "string",
              "name": "name",
              "type": "string"
            },
            {
              "internalType": "uint256",
              "name": "id",
              "type": "uint256"
            }
          ],
          "internalType": "struct CRUD.Player",
          "name": "",
          "type": "tuple"
        }
      ],
      "stateMutability": "view",
      "type": "function",
      "constant": true
    }
  ],
  "bytecode": "0x608060405260018055600060025534801561001957600080fd5b506113a5806100296000396000f3fe608060405234801561001057600080fd5b50600436106100885760003560e01c80637d815d571161005b5780637d815d571461012657806387997d94146101425780639198a89714610160578063c494a0801461019057610088565b80632c302ec21461008d5780634861b2cc146100bd5780634fedc4de146100d957806354023f0b1461010a575b600080fd5b6100a760048036038101906100a291906109a4565b6101ae565b6040516100b49190610aad565b60405180910390f35b6100d760048036038101906100d29190610c04565b6101ef565b005b6100f360048036038101906100ee91906109a4565b6102a9565b604051610101929190610ca6565b60405180910390f35b610124600480360381019061011f9190610cd6565b6103e4565b005b610140600480360381019061013b91906109a4565b61048d565b005b61014a61055b565b6040516101579190610d32565b60405180910390f35b61017a600480360381019061017591906109a4565b610613565b6040516101879190610d32565b60405180910390f35b6101986106b8565b6040516101a59190610d54565b60405180910390f35b6101b66108e3565b600060606101c3846102a9565b809250819350505060006040518060400160405280838152602001848152509050809350505050919050565b60006040518060400160405280838152602001600154815250908060018154018082558091505060019003906000526020600020906002020160009091909190915060008201518160000190816102469190610f7b565b506020820151816001015550508060036000600154815260200190815260200160002090816102759190610f7b565b50600260008154809291906102899061107c565b9190505550600160008154809291906102a19061107c565b919050555050565b6000606060005b6000805490508110156103dd5783600082815481106102d2576102d16110c4565b5b906000526020600020906002020160010154036103ca57600081815481106102fd576102fc6110c4565b5b90600052602060002090600202016001015460008281548110610323576103226110c4565b5b906000526020600020906002020160000180805461034090610d9e565b80601f016020809104026020016040519081016040528092919081815260200182805461036c90610d9e565b80156103b95780601f1061038e576101008083540402835291602001916103b9565b820191906000526020600020905b81548152906001019060200180831161039c57829003601f168201915b5050505050905092509250506103df565b80806103d59061107c565b9150506102b0565b505b915091565b60005b600080549050811015610467578260008281548110610409576104086110c4565b5b90600052602060002090600202016001015403610454578160008281548110610435576104346110c4565b5b906000526020600020906002020160000190816104529190610f7b565b505b808061045f9061107c565b9150506103e7565b50806003600084815260200190815260200160002090816104889190610f7b565b505050565b60005b6000805490508110156105385781600082815481106104b2576104b16110c4565b5b906000526020600020906002020160010154036105255760008054806104db576104da6110f3565b5b60019003818190600052602060002090600202016000808201600061050091906108fd565b6001820160009055505090556002600081548092919061051f90611122565b91905055505b80806105309061107c565b915050610490565b5060036000828152602001908152602001600020600061055891906108fd565b50565b6060600060405180602001604052806000815250905060005b60008054905081101561060b57816105b060008381548110610599576105986110c4565b5b9060005260206000209060020201600101546106c2565b600083815481106105c4576105c36110c4565b5b90600052602060002090600202016000016040516020016105e7939291906112ee565b604051602081830303815290604052915080806106039061107c565b915050610574565b508091505090565b606060036000838152602001908152602001600020805461063390610d9e565b80601f016020809104026020016040519081016040528092919081815260200182805461065f90610d9e565b80156106ac5780601f10610681576101008083540402835291602001916106ac565b820191906000526020600020905b81548152906001019060200180831161068f57829003601f168201915b50505050509050919050565b6000600254905090565b6060600060016106d184610790565b01905060008167ffffffffffffffff8111156106f0576106ef610ad9565b5b6040519080825280601f01601f1916602001820160405280156107225781602001600182028036833780820191505090505b509050600082602001820190505b600115610785578080600190039150507f3031323334353637383961626364656600000000000000000000000000000000600a86061a8153600a858161077957610778611340565b5b04945060008503610730575b819350505050919050565b600080600090507a184f03e93ff9f4daa797ed6e38ed64bf6a1f01000000000000000083106107ee577a184f03e93ff9f4daa797ed6e38ed64bf6a1f01000000000000000083816107e4576107e3611340565b5b0492506040810190505b6d04ee2d6d415b85acef8100000000831061082b576d04ee2d6d415b85acef8100000000838161082157610820611340565b5b0492506020810190505b662386f26fc10000831061085a57662386f26fc1000083816108505761084f611340565b5b0492506010810190505b6305f5e1008310610883576305f5e100838161087957610878611340565b5b0492506008810190505b61271083106108a857612710838161089e5761089d611340565b5b0492506004810190505b606483106108cb57606483816108c1576108c0611340565b5b0492506002810190505b600a83106108da576001810190505b80915050919050565b604051806040016040528060608152602001600081525090565b50805461090990610d9e565b6000825580601f1061091b575061093a565b601f016020900490600052602060002090810190610939919061093d565b5b50565b5b8082111561095657600081600090555060010161093e565b5090565b6000604051905090565b600080fd5b600080fd5b6000819050919050565b6109818161096e565b811461098c57600080fd5b50565b60008135905061099e81610978565b92915050565b6000602082840312156109ba576109b9610964565b5b60006109c88482850161098f565b91505092915050565b600081519050919050565b600082825260208201905092915050565b60005b83811015610a0b5780820151818401526020810190506109f0565b60008484015250505050565b6000601f19601f8301169050919050565b6000610a33826109d1565b610a3d81856109dc565b9350610a4d8185602086016109ed565b610a5681610a17565b840191505092915050565b610a6a8161096e565b82525050565b60006040830160008301518482036000860152610a8d8282610a28565b9150506020830151610aa26020860182610a61565b508091505092915050565b60006020820190508181036000830152610ac78184610a70565b905092915050565b600080fd5b600080fd5b7f4e487b7100000000000000000000000000000000000000000000000000000000600052604160045260246000fd5b610b1182610a17565b810181811067ffffffffffffffff82111715610b3057610b2f610ad9565b5b80604052505050565b6000610b4361095a565b9050610b4f8282610b08565b919050565b600067ffffffffffffffff821115610b6f57610b6e610ad9565b5b610b7882610a17565b9050602081019050919050565b82818337600083830152505050565b6000610ba7610ba284610b54565b610b39565b905082815260208101848484011115610bc357610bc2610ad4565b5b610bce848285610b85565b509392505050565b600082601f830112610beb57610bea610acf565b5b8135610bfb848260208601610b94565b91505092915050565b600060208284031215610c1a57610c19610964565b5b600082013567ffffffffffffffff811115610c3857610c37610969565b5b610c4484828501610bd6565b91505092915050565b610c568161096e565b82525050565b600082825260208201905092915050565b6000610c78826109d1565b610c828185610c5c565b9350610c928185602086016109ed565b610c9b81610a17565b840191505092915050565b6000604082019050610cbb6000830185610c4d565b8181036020830152610ccd8184610c6d565b90509392505050565b60008060408385031215610ced57610cec610964565b5b6000610cfb8582860161098f565b925050602083013567ffffffffffffffff811115610d1c57610d1b610969565b5b610d2885828601610bd6565b9150509250929050565b60006020820190508181036000830152610d4c8184610c6d565b905092915050565b6000602082019050610d696000830184610c4d565b92915050565b7f4e487b7100000000000000000000000000000000000000000000000000000000600052602260045260246000fd5b60006002820490506001821680610db657607f821691505b602082108103610dc957610dc8610d6f565b5b50919050565b60008190508160005260206000209050919050565b60006020601f8301049050919050565b600082821b905092915050565b600060088302610e317fffffffffffffffffffffffffffffffffffffffffffffffffffffffffffffffff82610df4565b610e3b8683610df4565b95508019841693508086168417925050509392505050565b6000819050919050565b6000610e78610e73610e6e8461096e565b610e53565b61096e565b9050919050565b6000819050919050565b610e9283610e5d565b610ea6610e9e82610e7f565b848454610e01565b825550505050565b600090565b610ebb610eae565b610ec6818484610e89565b505050565b5b81811015610eea57610edf600082610eb3565b600181019050610ecc565b5050565b601f821115610f2f57610f0081610dcf565b610f0984610de4565b81016020851015610f18578190505b610f2c610f2485610de4565b830182610ecb565b50505b505050565b600082821c905092915050565b6000610f5260001984600802610f34565b1980831691505092915050565b6000610f6b8383610f41565b9150826002028217905092915050565b610f84826109d1565b67ffffffffffffffff811115610f9d57610f9c610ad9565b5b610fa78254610d9e565b610fb2828285610eee565b600060209050601f831160018114610fe55760008415610fd3578287015190505b610fdd8582610f5f565b865550611045565b601f198416610ff386610dcf565b60005b8281101561101b57848901518255600182019150602085019450602081019050610ff6565b868310156110385784890151611034601f891682610f41565b8355505b6001600288020188555050505b505050505050565b7f4e487b7100000000000000000000000000000000000000000000000000000000600052601160045260246000fd5b60006110878261096e565b91507fffffffffffffffffffffffffffffffffffffffffffffffffffffffffffffffff82036110b9576110b861104d565b5b600182019050919050565b7f4e487b7100000000000000000000000000000000000000000000000000000000600052603260045260246000fd5b7f4e487b7100000000000000000000000000000000000000000000000000000000600052603160045260246000fd5b600061112d8261096e565b9150600082036111405761113f61104d565b5b600182039050919050565b600081905092915050565b6000611161826109d1565b61116b818561114b565b935061117b8185602086016109ed565b80840191505092915050565b7f49443a2000000000000000000000000000000000000000000000000000000000600082015250565b60006111bd60048361114b565b91506111c882611187565b600482019050919050565b7f204e616d653a2000000000000000000000000000000000000000000000000000600082015250565b600061120960078361114b565b9150611214826111d3565b600782019050919050565b6000815461122c81610d9e565b611236818661114b565b94506001821660008114611251576001811461126657611299565b60ff1983168652811515820286019350611299565b61126f85610dcf565b60005b8381101561129157815481890152600182019150602081019050611272565b838801955050505b50505092915050565b7f202d200000000000000000000000000000000000000000000000000000000000600082015250565b60006112d860038361114b565b91506112e3826112a2565b600382019050919050565b60006112fa8286611156565b9150611305826111b0565b91506113118285611156565b915061131c826111fc565b9150611328828461121f565b9150611333826112cb565b9150819050949350505050565b7f4e487b7100000000000000000000000000000000000000000000000000000000600052601260045260246000fdfea26469706673582212205bd3ff76019cce4ee4e1eb4cc4b5f7ef94472cd64ca1a7b2b87ed796a0bb445e64736f6c63430008110033",
  "immutableReferences": {},
  "source": "// SPDX-License-Identifier: MIT\r\npragma solidity ^0.8.0;\r\n\r\nimport \"@openzeppelin/contracts/utils/Strings.sol\";\r\n\r\ncontract CRUD {\r\n    // Create struct Player\r\n    struct Player {\r\n        string name;\r\n        uint256 id;\r\n    }\r\n\r\n    // Players array\r\n    Player[] private players;\r\n    uint256 private nextId = 1;\r\n    uint256 private balances = 0;\r\n\r\n    // Mapping\r\n    mapping (uint256 => string) private idToName;\r\n\r\n    // CRUD function\r\n\r\n    // Create function\r\n    function Create(string memory name) public {\r\n        players.push(Player(name, nextId));\r\n        idToName[nextId] = name;\r\n        balances++;\r\n        nextId++;\r\n    }\r\n\r\n    // Read function\r\n    function Read(uint256 id) view public returns (uint256 PlayerId, string memory PlayerName) {\r\n        for (uint256 index = 0; index < players.length; index++) {\r\n            if (players[index].id == id) {\r\n                return (players[index].id, players[index].name);\r\n            }\r\n        }\r\n    }\r\n\r\n    // Update function\r\n    function Update(uint256 id, string memory newName) public {\r\n        for (uint256 i = 0; i < players.length; i++) {\r\n            if (players[i].id == id) {\r\n                players[i].name = newName;\r\n            }\r\n        }\r\n        idToName[id] = newName;\r\n    }\r\n\r\n    // Delete function\r\n    function Delete(uint256 id) public {\r\n        for (uint256 i = 0; i < players.length; i++) {\r\n            if (players[i].id == id) {\r\n                players.pop();\r\n                balances--;\r\n            }\r\n        }\r\n        delete idToName[id];\r\n    }\r\n\r\n    // get balances\r\n    function totalPlayer() view public returns (uint256) {\r\n        return balances;\r\n    } \r\n\r\n    // show players\r\n    function showPlayer() view public returns (string memory) {\r\n        string memory result = \"\";\r\n        \r\n        for (uint256 i = 0; i < players.length; i++) {\r\n            result = string(\r\n                abi.encodePacked(\r\n                    result,\r\n                    \"ID: \", Strings.toString(players[i].id),\r\n                    \" \"\r\n                    \"Name: \", players[i].name,\r\n                    \" - \"\r\n                )\r\n            );\r\n        } \r\n\r\n        return result;\r\n    }\r\n\r\n    // get function \r\n    function getNameFromId(uint256 id) public view returns (string memory) {\r\n        return idToName[id];\r\n    }\r\n\r\n    function getObjectPlayer(uint256 _id) public view returns (Player memory) {\r\n        uint256 id;\r\n        string memory name;\r\n        (id, name) = Read(_id);\r\n        Player memory p = Player(name, id);\r\n        return p;\r\n    }\r\n\r\n}",
  "sourcePath": "D:\\Information Technology\\Blockchain Coding\\Solidity\\TruffleProject\\Solidity_CRUD\\contracts\\CRUD.sol",
  "compiler": {
    "name": "solc",
    "version": "0.8.17+commit.8df45f5f.Emscripten.clang"
  },
  "schemaVersion": "3.4.10",
  "updatedAt": "2022-11-23T06:43:20.159Z",
  "networkType": "ethereum",
  "devdoc": {
    "kind": "dev",
    "methods": {},
    "version": 1
  },
  "userdoc": {
    "kind": "user",
    "methods": {},
    "version": 1
  }
}