{
  "contractName": "CRUD",
  "abi": [
    {
      "inputs": [
        {
          "internalType": "string",
          "name": "name",
          "type": "string"
        }
      ],
      "name": "Create",
      "outputs": [],
      "stateMutability": "nonpayable",
      "type": "function"
    },
    {
      "inputs": [
        {
          "internalType": "uint256",
          "name": "id",
          "type": "uint256"
        }
      ],
      "name": "Read",
      "outputs": [
        {
          "internalType": "uint256",
          "name": "PlayerId",
          "type": "uint256"
        },
        {
          "internalType": "string",
          "name": "PlayerName",
          "type": "string"
        }
      ],
      "stateMutability": "view",
      "type": "function",
      "constant": true
    },
    {
      "inputs": [
        {
          "internalType": "uint256",
          "name": "id",
          "type": "uint256"
        },
        {
          "internalType": "string",
          "name": "newName",
          "type": "string"
        }
      ],
      "name": "Update",
      "outputs": [],
      "stateMutability": "nonpayable",
      "type": "function"
    },
    {
      "inputs": [
        {
          "internalType": "uint256",
          "name": "id",
          "type": "uint256"
        }
      ],
      "name": "Delete",
      "outputs": [],
      "stateMutability": "nonpayable",
      "type": "function"
    },
    {
      "inputs": [],
      "name": "totalPlayer",
      "outputs": [
        {
          "internalType": "uint256",
          "name": "",
          "type": "uint256"
        }
      ],
      "stateMutability": "view",
      "type": "function",
      "constant": true
    },
    {
      "inputs": [],
      "name": "showPlayer",
      "outputs": [
        {
          "internalType": "string",
          "name": "ListPlayer",
          "type": "string"
        }
      ],
      "stateMutability": "view",
      "type": "function",
      "constant": true
    }
  ],
  "bytecode": "0x608060405260018055600060025534801561001957600080fd5b50611113806100296000396000f3fe608060405234801561001057600080fd5b50600436106100625760003560e01c80634861b2cc146100675780634fedc4de1461008357806354023f0b146100b45780637d815d57146100d057806387997d94146100ec578063c494a0801461010a575b600080fd5b610081600480360381019061007c9190610909565b610128565b005b61009d60048036038101906100989190610988565b6101e2565b6040516100ab929190610a43565b60405180910390f35b6100ce60048036038101906100c99190610a73565b61031d565b005b6100ea60048036038101906100e59190610988565b6103c6565b005b6100f461046f565b6040516101019190610acf565b60405180910390f35b610112610527565b60405161011f9190610af1565b60405180910390f35b600060405180604001604052808381526020016001548152509080600181540180825580915050600190039060005260206000209060020201600090919091909150600082015181600001908161017f9190610d18565b506020820151816001015550508060036000600154815260200190815260200160002090816101ae9190610d18565b50600260008154809291906101c290610e19565b9190505550600160008154809291906101da90610e19565b919050555050565b6000606060005b60008054905081101561031657836000828154811061020b5761020a610e61565b5b90600052602060002090600202016001015403610303576000818154811061023657610235610e61565b5b9060005260206000209060020201600101546000828154811061025c5761025b610e61565b5b906000526020600020906002020160000180805461027990610b3b565b80601f01602080910402602001604051908101604052809291908181526020018280546102a590610b3b565b80156102f25780601f106102c7576101008083540402835291602001916102f2565b820191906000526020600020905b8154815290600101906020018083116102d557829003601f168201915b505050505090509250925050610318565b808061030e90610e19565b9150506101e9565b505b915091565b60005b6000805490508110156103a057826000828154811061034257610341610e61565b5b9060005260206000209060020201600101540361038d57816000828154811061036e5761036d610e61565b5b9060005260206000209060020201600001908161038b9190610d18565b505b808061039890610e19565b915050610320565b50806003600084815260200190815260200160002090816103c19190610d18565b505050565b60005b60008054905081101561046b5781600082815481106103eb576103ea610e61565b5b90600052602060002090600202016001015403610458576000818154811061041657610415610e61565b5b9060005260206000209060020201600080820160006104359190610752565b600182016000905550506002600081548092919061045290610e90565b91905055505b808061046390610e19565b9150506103c9565b5050565b6060600060405180602001604052806000815250905060005b60008054905081101561051f57816104c4600083815481106104ad576104ac610e61565b5b906000526020600020906002020160010154610531565b600083815481106104d8576104d7610e61565b5b90600052602060002090600202016000016040516020016104fb9392919061105c565b6040516020818303038152906040529150808061051790610e19565b915050610488565b508091505090565b6000600254905090565b606060006001610540846105ff565b01905060008167ffffffffffffffff81111561055f5761055e6107de565b5b6040519080825280601f01601f1916602001820160405280156105915781602001600182028036833780820191505090505b509050600082602001820190505b6001156105f4578080600190039150507f3031323334353637383961626364656600000000000000000000000000000000600a86061a8153600a85816105e8576105e76110ae565b5b0494506000850361059f575b819350505050919050565b600080600090507a184f03e93ff9f4daa797ed6e38ed64bf6a1f010000000000000000831061065d577a184f03e93ff9f4daa797ed6e38ed64bf6a1f0100000000000000008381610653576106526110ae565b5b0492506040810190505b6d04ee2d6d415b85acef8100000000831061069a576d04ee2d6d415b85acef810000000083816106905761068f6110ae565b5b0492506020810190505b662386f26fc1000083106106c957662386f26fc1000083816106bf576106be6110ae565b5b0492506010810190505b6305f5e10083106106f2576305f5e10083816106e8576106e76110ae565b5b0492506008810190505b612710831061071757612710838161070d5761070c6110ae565b5b0492506004810190505b6064831061073a57606483816107305761072f6110ae565b5b0492506002810190505b600a8310610749576001810190505b80915050919050565b50805461075e90610b3b565b6000825580601f10610770575061078f565b601f01602090049060005260206000209081019061078e9190610792565b5b50565b5b808211156107ab576000816000905550600101610793565b5090565b6000604051905090565b600080fd5b600080fd5b600080fd5b600080fd5b6000601f19601f8301169050919050565b7f4e487b7100000000000000000000000000000000000000000000000000000000600052604160045260246000fd5b610816826107cd565b810181811067ffffffffffffffff82111715610835576108346107de565b5b80604052505050565b60006108486107af565b9050610854828261080d565b919050565b600067ffffffffffffffff821115610874576108736107de565b5b61087d826107cd565b9050602081019050919050565b82818337600083830152505050565b60006108ac6108a784610859565b61083e565b9050828152602081018484840111156108c8576108c76107c8565b5b6108d384828561088a565b509392505050565b600082601f8301126108f0576108ef6107c3565b5b8135610900848260208601610899565b91505092915050565b60006020828403121561091f5761091e6107b9565b5b600082013567ffffffffffffffff81111561093d5761093c6107be565b5b610949848285016108db565b91505092915050565b6000819050919050565b61096581610952565b811461097057600080fd5b50565b6000813590506109828161095c565b92915050565b60006020828403121561099e5761099d6107b9565b5b60006109ac84828501610973565b91505092915050565b6109be81610952565b82525050565b600081519050919050565b600082825260208201905092915050565b60005b838110156109fe5780820151818401526020810190506109e3565b60008484015250505050565b6000610a15826109c4565b610a1f81856109cf565b9350610a2f8185602086016109e0565b610a38816107cd565b840191505092915050565b6000604082019050610a5860008301856109b5565b8181036020830152610a6a8184610a0a565b90509392505050565b60008060408385031215610a8a57610a896107b9565b5b6000610a9885828601610973565b925050602083013567ffffffffffffffff811115610ab957610ab86107be565b5b610ac5858286016108db565b9150509250929050565b60006020820190508181036000830152610ae98184610a0a565b905092915050565b6000602082019050610b0660008301846109b5565b92915050565b7f4e487b7100000000000000000000000000000000000000000000000000000000600052602260045260246000fd5b60006002820490506001821680610b5357607f821691505b602082108103610b6657610b65610b0c565b5b50919050565b60008190508160005260206000209050919050565b60006020601f8301049050919050565b600082821b905092915050565b600060088302610bce7fffffffffffffffffffffffffffffffffffffffffffffffffffffffffffffffff82610b91565b610bd88683610b91565b95508019841693508086168417925050509392505050565b6000819050919050565b6000610c15610c10610c0b84610952565b610bf0565b610952565b9050919050565b6000819050919050565b610c2f83610bfa565b610c43610c3b82610c1c565b848454610b9e565b825550505050565b600090565b610c58610c4b565b610c63818484610c26565b505050565b5b81811015610c8757610c7c600082610c50565b600181019050610c69565b5050565b601f821115610ccc57610c9d81610b6c565b610ca684610b81565b81016020851015610cb5578190505b610cc9610cc185610b81565b830182610c68565b50505b505050565b600082821c905092915050565b6000610cef60001984600802610cd1565b1980831691505092915050565b6000610d088383610cde565b9150826002028217905092915050565b610d21826109c4565b67ffffffffffffffff811115610d3a57610d396107de565b5b610d448254610b3b565b610d4f828285610c8b565b600060209050601f831160018114610d825760008415610d70578287015190505b610d7a8582610cfc565b865550610de2565b601f198416610d9086610b6c565b60005b82811015610db857848901518255600182019150602085019450602081019050610d93565b86831015610dd55784890151610dd1601f891682610cde565b8355505b6001600288020188555050505b505050505050565b7f4e487b7100000000000000000000000000000000000000000000000000000000600052601160045260246000fd5b6000610e2482610952565b91507fffffffffffffffffffffffffffffffffffffffffffffffffffffffffffffffff8203610e5657610e55610dea565b5b600182019050919050565b7f4e487b7100000000000000000000000000000000000000000000000000000000600052603260045260246000fd5b6000610e9b82610952565b915060008203610eae57610ead610dea565b5b600182039050919050565b600081905092915050565b6000610ecf826109c4565b610ed98185610eb9565b9350610ee98185602086016109e0565b80840191505092915050565b7f49443a2000000000000000000000000000000000000000000000000000000000600082015250565b6000610f2b600483610eb9565b9150610f3682610ef5565b600482019050919050565b7f204e616d653a2000000000000000000000000000000000000000000000000000600082015250565b6000610f77600783610eb9565b9150610f8282610f41565b600782019050919050565b60008154610f9a81610b3b565b610fa48186610eb9565b94506001821660008114610fbf5760018114610fd457611007565b60ff1983168652811515820286019350611007565b610fdd85610b6c565b60005b83811015610fff57815481890152600182019150602081019050610fe0565b838801955050505b50505092915050565b7f202d200000000000000000000000000000000000000000000000000000000000600082015250565b6000611046600383610eb9565b915061105182611010565b600382019050919050565b60006110688286610ec4565b915061107382610f1e565b915061107f8285610ec4565b915061108a82610f6a565b91506110968284610f8d565b91506110a182611039565b9150819050949350505050565b7f4e487b7100000000000000000000000000000000000000000000000000000000600052601260045260246000fdfea2646970667358221220c3766bf334fc284d37302e018ace223e2c067ebce10d24fec784dea2401ed75364736f6c63430008110033",
  "immutableReferences": {},
  "source": "// SPDX-License-Identifier: MIT\r\npragma solidity ^0.8.0;\r\n\r\nimport \"@openzeppelin/contracts/utils/Strings.sol\";\r\n\r\ncontract CRUD {\r\n    // Create struct Player\r\n    struct Player {\r\n        string name;\r\n        uint256 id;\r\n    }\r\n\r\n    // Players array\r\n    Player[] private players;\r\n    uint256 private nextId = 1;\r\n    uint256 private balances = 0;\r\n\r\n    // Mapping\r\n    mapping (uint256 => string) private idToName;\r\n\r\n    // CRUD function\r\n\r\n    // Create function\r\n    function Create(string memory name) public {\r\n        players.push(Player(name, nextId));\r\n        idToName[nextId] = name;\r\n        balances++;\r\n        nextId++;\r\n    }\r\n\r\n    // Read function\r\n    function Read(uint256 id) view public returns (uint256 PlayerId, string memory PlayerName) {\r\n        for (uint256 index = 0; index < players.length; index++) {\r\n            if (players[index].id == id) {\r\n                return (players[index].id, players[index].name);\r\n            }\r\n        }\r\n    }\r\n\r\n    // Update function\r\n    function Update(uint256 id, string memory newName) public {\r\n        for (uint256 i = 0; i < players.length; i++) {\r\n            if (players[i].id == id) {\r\n                players[i].name = newName;\r\n            }\r\n        }\r\n        idToName[id] = newName;\r\n    }\r\n\r\n    // Delete function\r\n    function Delete(uint256 id) public {\r\n        for (uint256 i = 0; i < players.length; i++) {\r\n            if (players[i].id == id) {\r\n                delete players[i];\r\n                balances--;\r\n            }\r\n        }\r\n    }\r\n\r\n    // get balances\r\n    function totalPlayer() view public returns (uint256) {\r\n        return balances;\r\n    } \r\n\r\n    // show players\r\n    function showPlayer() view public returns (string memory ListPlayer) {\r\n        string memory result = \"\";\r\n        \r\n        for (uint256 i = 0; i < players.length; i++) {\r\n            result = string(\r\n                abi.encodePacked(\r\n                    result,\r\n                    \"ID: \", Strings.toString(players[i].id),\r\n                    \" \"\r\n                    \"Name: \", players[i].name,\r\n                    \" - \"\r\n                )\r\n            );\r\n        } \r\n\r\n        return result;\r\n    }\r\n}",
  "sourcePath": "D:\\Information Technology\\Blockchain Coding\\Solidity\\TruffleTestProject\\Solidity_CRUD\\contracts\\CRUD.sol",
  "compiler": {
    "name": "solc",
    "version": "0.8.17+commit.8df45f5f.Emscripten.clang"
  },
  "schemaVersion": "3.4.10",
  "updatedAt": "2022-11-21T08:45:53.063Z",
  "networkType": "ethereum",
  "devdoc": {
    "kind": "dev",
    "methods": {},
    "version": 1
  },
  "userdoc": {
    "kind": "user",
    "methods": {},
    "version": 1
  }
}